{
  "_format": "hh3-artifact-1",
  "contractName": "NftToken",
  "sourceName": "contracts/NftToken.sol",
  "abi": [
    {
      "inputs": [],
      "stateMutability": "nonpayable",
      "type": "constructor"
    },
    {
      "inputs": [
        {
          "internalType": "uint256",
          "name": "numerator",
          "type": "uint256"
        },
        {
          "internalType": "uint256",
          "name": "denominator",
          "type": "uint256"
        }
      ],
      "name": "ERC2981InvalidDefaultRoyalty",
      "type": "error"
    },
    {
      "inputs": [
        {
          "internalType": "address",
          "name": "receiver",
          "type": "address"
        }
      ],
      "name": "ERC2981InvalidDefaultRoyaltyReceiver",
      "type": "error"
    },
    {
      "inputs": [
        {
          "internalType": "uint256",
          "name": "tokenId",
          "type": "uint256"
        },
        {
          "internalType": "uint256",
          "name": "numerator",
          "type": "uint256"
        },
        {
          "internalType": "uint256",
          "name": "denominator",
          "type": "uint256"
        }
      ],
      "name": "ERC2981InvalidTokenRoyalty",
      "type": "error"
    },
    {
      "inputs": [
        {
          "internalType": "uint256",
          "name": "tokenId",
          "type": "uint256"
        },
        {
          "internalType": "address",
          "name": "receiver",
          "type": "address"
        }
      ],
      "name": "ERC2981InvalidTokenRoyaltyReceiver",
      "type": "error"
    },
    {
      "inputs": [
        {
          "internalType": "address",
          "name": "sender",
          "type": "address"
        },
        {
          "internalType": "uint256",
          "name": "tokenId",
          "type": "uint256"
        },
        {
          "internalType": "address",
          "name": "owner",
          "type": "address"
        }
      ],
      "name": "ERC721IncorrectOwner",
      "type": "error"
    },
    {
      "inputs": [
        {
          "internalType": "address",
          "name": "operator",
          "type": "address"
        },
        {
          "internalType": "uint256",
          "name": "tokenId",
          "type": "uint256"
        }
      ],
      "name": "ERC721InsufficientApproval",
      "type": "error"
    },
    {
      "inputs": [
        {
          "internalType": "address",
          "name": "approver",
          "type": "address"
        }
      ],
      "name": "ERC721InvalidApprover",
      "type": "error"
    },
    {
      "inputs": [
        {
          "internalType": "address",
          "name": "operator",
          "type": "address"
        }
      ],
      "name": "ERC721InvalidOperator",
      "type": "error"
    },
    {
      "inputs": [
        {
          "internalType": "address",
          "name": "owner",
          "type": "address"
        }
      ],
      "name": "ERC721InvalidOwner",
      "type": "error"
    },
    {
      "inputs": [
        {
          "internalType": "address",
          "name": "receiver",
          "type": "address"
        }
      ],
      "name": "ERC721InvalidReceiver",
      "type": "error"
    },
    {
      "inputs": [
        {
          "internalType": "address",
          "name": "sender",
          "type": "address"
        }
      ],
      "name": "ERC721InvalidSender",
      "type": "error"
    },
    {
      "inputs": [
        {
          "internalType": "uint256",
          "name": "tokenId",
          "type": "uint256"
        }
      ],
      "name": "ERC721NonexistentToken",
      "type": "error"
    },
    {
      "inputs": [
        {
          "internalType": "address",
          "name": "owner",
          "type": "address"
        }
      ],
      "name": "OwnableInvalidOwner",
      "type": "error"
    },
    {
      "inputs": [
        {
          "internalType": "address",
          "name": "account",
          "type": "address"
        }
      ],
      "name": "OwnableUnauthorizedAccount",
      "type": "error"
    },
    {
      "anonymous": false,
      "inputs": [
        {
          "indexed": true,
          "internalType": "address",
          "name": "owner",
          "type": "address"
        },
        {
          "indexed": true,
          "internalType": "address",
          "name": "approved",
          "type": "address"
        },
        {
          "indexed": true,
          "internalType": "uint256",
          "name": "tokenId",
          "type": "uint256"
        }
      ],
      "name": "Approval",
      "type": "event"
    },
    {
      "anonymous": false,
      "inputs": [
        {
          "indexed": true,
          "internalType": "address",
          "name": "owner",
          "type": "address"
        },
        {
          "indexed": true,
          "internalType": "address",
          "name": "operator",
          "type": "address"
        },
        {
          "indexed": false,
          "internalType": "bool",
          "name": "approved",
          "type": "bool"
        }
      ],
      "name": "ApprovalForAll",
      "type": "event"
    },
    {
      "anonymous": false,
      "inputs": [
        {
          "indexed": false,
          "internalType": "uint256",
          "name": "_fromTokenId",
          "type": "uint256"
        },
        {
          "indexed": false,
          "internalType": "uint256",
          "name": "_toTokenId",
          "type": "uint256"
        }
      ],
      "name": "BatchMetadataUpdate",
      "type": "event"
    },
    {
      "anonymous": false,
      "inputs": [
        {
          "indexed": false,
          "internalType": "uint256",
          "name": "_tokenId",
          "type": "uint256"
        }
      ],
      "name": "MetadataUpdate",
      "type": "event"
    },
    {
      "anonymous": false,
      "inputs": [
        {
          "indexed": true,
          "internalType": "address",
          "name": "_to",
          "type": "address"
        },
        {
          "indexed": false,
          "internalType": "uint256",
          "name": "_tokenId",
          "type": "uint256"
        },
        {
          "indexed": false,
          "internalType": "string",
          "name": "_tokenURI",
          "type": "string"
        }
      ],
      "name": "Mint",
      "type": "event"
    },
    {
      "anonymous": false,
      "inputs": [
        {
          "indexed": true,
          "internalType": "address",
          "name": "previousOwner",
          "type": "address"
        },
        {
          "indexed": true,
          "internalType": "address",
          "name": "newOwner",
          "type": "address"
        }
      ],
      "name": "OwnershipTransferred",
      "type": "event"
    },
    {
      "anonymous": false,
      "inputs": [
        {
          "indexed": true,
          "internalType": "address",
          "name": "from",
          "type": "address"
        },
        {
          "indexed": true,
          "internalType": "address",
          "name": "to",
          "type": "address"
        },
        {
          "indexed": true,
          "internalType": "uint256",
          "name": "tokenId",
          "type": "uint256"
        }
      ],
      "name": "Transfer",
      "type": "event"
    },
    {
      "inputs": [],
      "name": "MAX_SUPPLY",
      "outputs": [
        {
          "internalType": "uint256",
          "name": "",
          "type": "uint256"
        }
      ],
      "stateMutability": "view",
      "type": "function"
    },
    {
      "inputs": [],
      "name": "MINT_PRICE",
      "outputs": [
        {
          "internalType": "uint256",
          "name": "",
          "type": "uint256"
        }
      ],
      "stateMutability": "view",
      "type": "function"
    },
    {
      "inputs": [
        {
          "internalType": "address",
          "name": "to",
          "type": "address"
        },
        {
          "internalType": "uint256",
          "name": "tokenId",
          "type": "uint256"
        }
      ],
      "name": "approve",
      "outputs": [],
      "stateMutability": "nonpayable",
      "type": "function"
    },
    {
      "inputs": [
        {
          "internalType": "address",
          "name": "owner",
          "type": "address"
        }
      ],
      "name": "balanceOf",
      "outputs": [
        {
          "internalType": "uint256",
          "name": "",
          "type": "uint256"
        }
      ],
      "stateMutability": "view",
      "type": "function"
    },
    {
      "inputs": [
        {
          "internalType": "uint256",
          "name": "tokenId",
          "type": "uint256"
        }
      ],
      "name": "getApproved",
      "outputs": [
        {
          "internalType": "address",
          "name": "",
          "type": "address"
        }
      ],
      "stateMutability": "view",
      "type": "function"
    },
    {
      "inputs": [
        {
          "internalType": "address",
          "name": "owner",
          "type": "address"
        },
        {
          "internalType": "address",
          "name": "operator",
          "type": "address"
        }
      ],
      "name": "isApprovedForAll",
      "outputs": [
        {
          "internalType": "bool",
          "name": "",
          "type": "bool"
        }
      ],
      "stateMutability": "view",
      "type": "function"
    },
    {
      "inputs": [
        {
          "internalType": "string",
          "name": "_tokenURI",
          "type": "string"
        }
      ],
      "name": "mint",
      "outputs": [
        {
          "internalType": "uint256",
          "name": "",
          "type": "uint256"
        }
      ],
      "stateMutability": "payable",
      "type": "function"
    },
    {
      "inputs": [],
      "name": "name",
      "outputs": [
        {
          "internalType": "string",
          "name": "",
          "type": "string"
        }
      ],
      "stateMutability": "view",
      "type": "function"
    },
    {
      "inputs": [],
      "name": "owner",
      "outputs": [
        {
          "internalType": "address",
          "name": "",
          "type": "address"
        }
      ],
      "stateMutability": "view",
      "type": "function"
    },
    {
      "inputs": [
        {
          "internalType": "uint256",
          "name": "tokenId",
          "type": "uint256"
        }
      ],
      "name": "ownerOf",
      "outputs": [
        {
          "internalType": "address",
          "name": "",
          "type": "address"
        }
      ],
      "stateMutability": "view",
      "type": "function"
    },
    {
      "inputs": [],
      "name": "renounceOwnership",
      "outputs": [],
      "stateMutability": "nonpayable",
      "type": "function"
    },
    {
      "inputs": [
        {
          "internalType": "uint256",
          "name": "tokenId",
          "type": "uint256"
        },
        {
          "internalType": "uint256",
          "name": "salePrice",
          "type": "uint256"
        }
      ],
      "name": "royaltyInfo",
      "outputs": [
        {
          "internalType": "address",
          "name": "receiver",
          "type": "address"
        },
        {
          "internalType": "uint256",
          "name": "amount",
          "type": "uint256"
        }
      ],
      "stateMutability": "view",
      "type": "function"
    },
    {
      "inputs": [
        {
          "internalType": "address",
          "name": "from",
          "type": "address"
        },
        {
          "internalType": "address",
          "name": "to",
          "type": "address"
        },
        {
          "internalType": "uint256",
          "name": "tokenId",
          "type": "uint256"
        }
      ],
      "name": "safeTransferFrom",
      "outputs": [],
      "stateMutability": "nonpayable",
      "type": "function"
    },
    {
      "inputs": [
        {
          "internalType": "address",
          "name": "from",
          "type": "address"
        },
        {
          "internalType": "address",
          "name": "to",
          "type": "address"
        },
        {
          "internalType": "uint256",
          "name": "tokenId",
          "type": "uint256"
        },
        {
          "internalType": "bytes",
          "name": "data",
          "type": "bytes"
        }
      ],
      "name": "safeTransferFrom",
      "outputs": [],
      "stateMutability": "nonpayable",
      "type": "function"
    },
    {
      "inputs": [
        {
          "internalType": "address",
          "name": "operator",
          "type": "address"
        },
        {
          "internalType": "bool",
          "name": "approved",
          "type": "bool"
        }
      ],
      "name": "setApprovalForAll",
      "outputs": [],
      "stateMutability": "nonpayable",
      "type": "function"
    },
    {
      "inputs": [
        {
          "internalType": "bytes4",
          "name": "interfaceId",
          "type": "bytes4"
        }
      ],
      "name": "supportsInterface",
      "outputs": [
        {
          "internalType": "bool",
          "name": "",
          "type": "bool"
        }
      ],
      "stateMutability": "view",
      "type": "function"
    },
    {
      "inputs": [],
      "name": "symbol",
      "outputs": [
        {
          "internalType": "string",
          "name": "",
          "type": "string"
        }
      ],
      "stateMutability": "view",
      "type": "function"
    },
    {
      "inputs": [
        {
          "internalType": "uint256",
          "name": "tokenId",
          "type": "uint256"
        }
      ],
      "name": "tokenURI",
      "outputs": [
        {
          "internalType": "string",
          "name": "",
          "type": "string"
        }
      ],
      "stateMutability": "view",
      "type": "function"
    },
    {
      "inputs": [
        {
          "internalType": "address",
          "name": "from",
          "type": "address"
        },
        {
          "internalType": "address",
          "name": "to",
          "type": "address"
        },
        {
          "internalType": "uint256",
          "name": "tokenId",
          "type": "uint256"
        }
      ],
      "name": "transferFrom",
      "outputs": [],
      "stateMutability": "nonpayable",
      "type": "function"
    },
    {
      "inputs": [
        {
          "internalType": "address",
          "name": "newOwner",
          "type": "address"
        }
      ],
      "name": "transferOwnership",
      "outputs": [],
      "stateMutability": "nonpayable",
      "type": "function"
    }
  ],
  "bytecode": "0x608060405234801561000f575f5ffd5b5060408051808201825260038082526213919560ea1b602080840182905284518086019095529184529083015233915f610049838261017e565b506001610056828261017e565b5050506001600160a01b03811661008657604051631e4fbdf760e01b81525f600482015260240160405180910390fd5b61008f81610095565b50610238565b600980546001600160a01b038381166001600160a01b0319831681179093556040519116919082907f8be0079c531659141344cd1fd0a4f28419497f9722a3daafe3b4186f6b6457e0905f90a35050565b634e487b7160e01b5f52604160045260245ffd5b600181811c9082168061010e57607f821691505b60208210810361012c57634e487b7160e01b5f52602260045260245ffd5b50919050565b601f82111561017957805f5260205f20601f840160051c810160208510156101575750805b601f840160051c820191505b81811015610176575f8155600101610163565b50505b505050565b81516001600160401b03811115610197576101976100e6565b6101ab816101a584546100fa565b84610132565b6020601f8211600181146101dd575f83156101c65750848201515b5f19600385901b1c1916600184901b178455610176565b5f84815260208120601f198516915b8281101561020c57878501518255602094850194600190920191016101ec565b508482101561022957868401515f19600387901b60f8161c191681555b50505050600190811b01905550565b6116c4806102455f395ff3fe60806040526004361061011b575f3560e01c8063715018a61161009d578063c002d23d11610062578063c002d23d1461032c578063c87b56dd14610346578063d85d3d2714610365578063e985e9c514610378578063f2fde38b14610397575f5ffd5b8063715018a6146102a95780638da5cb5b146102bd57806395d89b41146102da578063a22cb465146102ee578063b88d4fde1461030d575f5ffd5b80632a55205a116100e35780632a55205a146101eb57806332cb6b0c1461022957806342842e0e1461024c5780636352211e1461026b57806370a082311461028a575f5ffd5b806301ffc9a71461011f57806306fdde0314610153578063081812fc14610174578063095ea7b3146101ab57806323b872dd146101cc575b5f5ffd5b34801561012a575f5ffd5b5061013e610139366004611182565b6103b6565b60405190151581526020015b60405180910390f35b34801561015e575f5ffd5b506101676103c6565b60405161014a91906111cb565b34801561017f575f5ffd5b5061019361018e3660046111dd565b610455565b6040516001600160a01b03909116815260200161014a565b3480156101b6575f5ffd5b506101ca6101c536600461120f565b61047c565b005b3480156101d7575f5ffd5b506101ca6101e6366004611237565b61048b565b3480156101f6575f5ffd5b5061020a610205366004611271565b610519565b604080516001600160a01b03909316835260208301919091520161014a565b348015610234575f5ffd5b5061023e61271081565b60405190815260200161014a565b348015610257575f5ffd5b506101ca610266366004611237565b61059c565b348015610276575f5ffd5b506101936102853660046111dd565b6105bb565b348015610295575f5ffd5b5061023e6102a4366004611291565b6105c5565b3480156102b4575f5ffd5b506101ca61060a565b3480156102c8575f5ffd5b506009546001600160a01b0316610193565b3480156102e5575f5ffd5b5061016761061d565b3480156102f9575f5ffd5b506101ca6103083660046112aa565b61062c565b348015610318575f5ffd5b506101ca61032736600461136e565b610637565b348015610337575f5ffd5b5061023e662386f26fc1000081565b348015610351575f5ffd5b506101676103603660046111dd565b61064f565b61023e6103733660046113e5565b61065a565b348015610383575f5ffd5b5061013e61039236600461142a565b610765565b3480156103a2575f5ffd5b506101ca6103b1366004611291565b610792565b5f6103c0826107cf565b92915050565b60605f80546103d49061145b565b80601f01602080910402602001604051908101604052809291908181526020018280546104009061145b565b801561044b5780601f106104225761010080835404028352916020019161044b565b820191905f5260205f20905b81548152906001019060200180831161042e57829003601f168201915b5050505050905090565b5f61045f826107f3565b505f828152600460205260409020546001600160a01b03166103c0565b61048782823361082b565b5050565b6001600160a01b0382166104b957604051633250574960e11b81525f60048201526024015b60405180910390fd5b5f6104c5838333610838565b9050836001600160a01b0316816001600160a01b031614610513576040516364283d7b60e01b81526001600160a01b03808616600483015260248201849052821660448201526064016104b0565b50505050565b5f82815260086020526040812080548291906001600160a01b03811690600160a01b90046001600160601b03168161056c5750506007546001600160a01b03811690600160a01b90046001600160601b03165b5f6127106105836001600160601b038416896114a7565b61058d91906114be565b92989297509195505050505050565b6105b683838360405180602001604052805f815250610637565b505050565b5f6103c0826107f3565b5f6001600160a01b0382166105ef576040516322718ad960e21b81525f60048201526024016104b0565b506001600160a01b03165f9081526003602052604090205490565b61061261092a565b61061b5f610957565b565b6060600180546103d49061145b565b6104873383836109a8565b61064284848461048b565b6105133385858585610a46565b60606103c082610b6e565b5f612710600a54106106a35760405162461bcd60e51b815260206004820152601260248201527113585e081cdd5c1c1b1e481c995858da195960721b60448201526064016104b0565b662386f26fc100003410156106f15760405162461bcd60e51b8152602060048201526014602482015273125b9cdd59999a58da595b9d081c185e5b595b9d60621b60448201526064016104b0565b600a8054905f610700836114dd565b9091555050600a546107123382610c79565b61071c8184610c92565b336001600160a01b03167f85a66b9141978db9980f7e0ce3b468cebf4f7999f32b23091c5c03e798b1ba7a82856040516107579291906114f5565b60405180910390a292915050565b6001600160a01b039182165f90815260056020908152604080832093909416825291909152205460ff1690565b61079a61092a565b6001600160a01b0381166107c357604051631e4fbdf760e01b81525f60048201526024016104b0565b6107cc81610957565b50565b5f6001600160e01b0319821663152a902d60e11b14806103c057506103c082610ce1565b5f818152600260205260408120546001600160a01b0316806103c057604051637e27328960e01b8152600481018490526024016104b0565b6105b68383836001610d05565b5f828152600260205260408120546001600160a01b039081169083161561086457610864818486610e09565b6001600160a01b0381161561089e5761087f5f855f5f610d05565b6001600160a01b0381165f90815260036020526040902080545f190190555b6001600160a01b038516156108cc576001600160a01b0385165f908152600360205260409020805460010190555b5f8481526002602052604080822080546001600160a01b0319166001600160a01b0389811691821790925591518793918516917fddf252ad1be2c89b69c2b068fc378daa952ba7f163c4a11628f55a4df523b3ef91a4949350505050565b6009546001600160a01b0316331461061b5760405163118cdaa760e01b81523360048201526024016104b0565b600980546001600160a01b038381166001600160a01b0319831681179093556040519116919082907f8be0079c531659141344cd1fd0a4f28419497f9722a3daafe3b4186f6b6457e0905f90a35050565b6001600160a01b0382166109da57604051630b61174360e31b81526001600160a01b03831660048201526024016104b0565b6001600160a01b038381165f81815260056020908152604080832094871680845294825291829020805460ff191686151590811790915591519182527f17307eab39ab6107e8899845ad3d59bd9653f200f220920489ca2b5937696c31910160405180910390a3505050565b6001600160a01b0383163b15610b6757604051630a85bd0160e11b81526001600160a01b0384169063150b7a0290610a8890889088908790879060040161150d565b6020604051808303815f875af1925050508015610ac2575060408051601f3d908101601f19168201909252610abf91810190611549565b60015b610b29573d808015610aef576040519150601f19603f3d011682016040523d82523d5f602084013e610af4565b606091505b5080515f03610b2157604051633250574960e11b81526001600160a01b03851660048201526024016104b0565b805160208201fd5b6001600160e01b03198116630a85bd0160e11b14610b6557604051633250574960e11b81526001600160a01b03851660048201526024016104b0565b505b5050505050565b6060610b79826107f3565b505f8281526006602052604081208054610b929061145b565b80601f0160208091040260200160405190810160405280929190818152602001828054610bbe9061145b565b8015610c095780601f10610be057610100808354040283529160200191610c09565b820191905f5260205f20905b815481529060010190602001808311610bec57829003601f168201915b505050505090505f610c2560408051602081019091525f815290565b905080515f03610c36575092915050565b815115610c68578082604051602001610c5092919061157b565b60405160208183030381529060405292505050919050565b610c7184610e6d565b949350505050565b610487828260405180602001604052805f815250610ede565b5f828152600660205260409020610ca982826115d3565b506040518281527ff8e1a15aba9398e019f0b49df1a4fde98ee17ae345cb5f6b5e2c27f5033e8ce79060200160405180910390a15050565b5f6001600160e01b03198216632483248360e11b14806103c057506103c082610ef5565b8080610d1957506001600160a01b03821615155b15610dda575f610d28846107f3565b90506001600160a01b03831615801590610d545750826001600160a01b0316816001600160a01b031614155b8015610d675750610d658184610765565b155b15610d905760405163a9fbf51f60e01b81526001600160a01b03841660048201526024016104b0565b8115610dd85783856001600160a01b0316826001600160a01b03167f8c5be1e5ebec7d5bd14f71427d1e84f3dd0314c0f7b2291e5b200ac8c7c3b92560405160405180910390a45b505b50505f90815260046020526040902080546001600160a01b0319166001600160a01b0392909216919091179055565b610e14838383610f44565b6105b6576001600160a01b038316610e4257604051637e27328960e01b8152600481018290526024016104b0565b60405163177e802f60e01b81526001600160a01b0383166004820152602481018290526044016104b0565b6060610e78826107f3565b505f610e8e60408051602081019091525f815290565b90505f815111610eac5760405180602001604052805f815250610ed7565b80610eb684610fa5565b604051602001610ec792919061157b565b6040516020818303038152906040525b9392505050565b610ee88383611035565b6105b6335f858585610a46565b5f6001600160e01b031982166380ac58cd60e01b1480610f2557506001600160e01b03198216635b5e139f60e01b145b806103c057506301ffc9a760e01b6001600160e01b03198316146103c0565b5f6001600160a01b03831615801590610c715750826001600160a01b0316846001600160a01b03161480610f7d5750610f7d8484610765565b80610c715750505f908152600460205260409020546001600160a01b03908116911614919050565b60605f610fb183611096565b60010190505f8167ffffffffffffffff811115610fd057610fd06112e3565b6040519080825280601f01601f191660200182016040528015610ffa576020820181803683370190505b5090508181016020015b5f19016f181899199a1a9b1b9c1cb0b131b232b360811b600a86061a8153600a850494508461100457509392505050565b6001600160a01b03821661105e57604051633250574960e11b81525f60048201526024016104b0565b5f61106a83835f610838565b90506001600160a01b038116156105b6576040516339e3563760e11b81525f60048201526024016104b0565b5f8072184f03e93ff9f4daa797ed6e38ed64bf6a1f0160401b83106110d45772184f03e93ff9f4daa797ed6e38ed64bf6a1f0160401b830492506040015b6d04ee2d6d415b85acef81000000008310611100576d04ee2d6d415b85acef8100000000830492506020015b662386f26fc10000831061111e57662386f26fc10000830492506010015b6305f5e1008310611136576305f5e100830492506008015b612710831061114a57612710830492506004015b6064831061115c576064830492506002015b600a83106103c05760010192915050565b6001600160e01b0319811681146107cc575f5ffd5b5f60208284031215611192575f5ffd5b8135610ed78161116d565b5f81518084528060208401602086015e5f602082860101526020601f19601f83011685010191505092915050565b602081525f610ed7602083018461119d565b5f602082840312156111ed575f5ffd5b5035919050565b80356001600160a01b038116811461120a575f5ffd5b919050565b5f5f60408385031215611220575f5ffd5b611229836111f4565b946020939093013593505050565b5f5f5f60608486031215611249575f5ffd5b611252846111f4565b9250611260602085016111f4565b929592945050506040919091013590565b5f5f60408385031215611282575f5ffd5b50508035926020909101359150565b5f602082840312156112a1575f5ffd5b610ed7826111f4565b5f5f604083850312156112bb575f5ffd5b6112c4836111f4565b9150602083013580151581146112d8575f5ffd5b809150509250929050565b634e487b7160e01b5f52604160045260245ffd5b5f5f67ffffffffffffffff841115611311576113116112e3565b50604051601f19601f85018116603f0116810181811067ffffffffffffffff82111715611340576113406112e3565b604052838152905080828401851015611357575f5ffd5b838360208301375f60208583010152509392505050565b5f5f5f5f60808587031215611381575f5ffd5b61138a856111f4565b9350611398602086016111f4565b925060408501359150606085013567ffffffffffffffff8111156113ba575f5ffd5b8501601f810187136113ca575f5ffd5b6113d9878235602084016112f7565b91505092959194509250565b5f602082840312156113f5575f5ffd5b813567ffffffffffffffff81111561140b575f5ffd5b8201601f8101841361141b575f5ffd5b610c71848235602084016112f7565b5f5f6040838503121561143b575f5ffd5b611444836111f4565b9150611452602084016111f4565b90509250929050565b600181811c9082168061146f57607f821691505b60208210810361148d57634e487b7160e01b5f52602260045260245ffd5b50919050565b634e487b7160e01b5f52601160045260245ffd5b80820281158282048414176103c0576103c0611493565b5f826114d857634e487b7160e01b5f52601260045260245ffd5b500490565b5f600182016114ee576114ee611493565b5060010190565b828152604060208201525f610c71604083018461119d565b6001600160a01b03858116825284166020820152604081018390526080606082018190525f9061153f9083018461119d565b9695505050505050565b5f60208284031215611559575f5ffd5b8151610ed78161116d565b5f81518060208401855e5f93019283525090919050565b5f610c716115898386611564565b84611564565b601f8211156105b657805f5260205f20601f840160051c810160208510156115b45750805b601f840160051c820191505b81811015610b67575f81556001016115c0565b815167ffffffffffffffff8111156115ed576115ed6112e3565b611601816115fb845461145b565b8461158f565b6020601f821160018114611633575f831561161c5750848201515b5f19600385901b1c1916600184901b178455610b67565b5f84815260208120601f198516915b828110156116625787850151825560209485019460019092019101611642565b508482101561167f57868401515f19600387901b60f8161c191681555b50505050600190811b0190555056fea26469706673582212200ba3acabb009026f24c3456a125fe3ba0022a55ffe8e9fbe1984773cf73fa47764736f6c634300081c0033",
  "linkReferences": {},
  "deployedLinkReferences": {},
  "immutableReferences": {},
  "inputSourceName": "project/contracts/NftToken.sol",
  "buildInfoId": "solc-0_8_28-2387dc4ca22e904871ac1423ed5eac43112fbb4b"
}